{
  "_format": "hh-sol-artifact-1",
  "contractName": "Fintrust",
  "sourceName": "contracts/original2.sol",
  "abi": [
    {
      "inputs": [],
      "stateMutability": "nonpayable",
      "type": "constructor"
    },
    {
      "inputs": [
        {
          "internalType": "uint256",
          "name": "campaignId",
          "type": "uint256"
        }
      ],
      "name": "InactiveCampaign",
      "type": "error"
    },
    {
      "inputs": [
        {
          "internalType": "uint256",
          "name": "amount",
          "type": "uint256"
        }
      ],
      "name": "InvalidAmount",
      "type": "error"
    },
    {
      "inputs": [
        {
          "internalType": "uint256",
          "name": "campaignId",
          "type": "uint256"
        },
        {
          "internalType": "address",
          "name": "creator",
          "type": "address"
        }
      ],
      "name": "InvalidState",
      "type": "error"
    },
    {
      "inputs": [
        {
          "internalType": "uint256",
          "name": "campaignId",
          "type": "uint256"
        }
      ],
      "name": "TargetReached",
      "type": "error"
    },
    {
      "inputs": [
        {
          "internalType": "address",
          "name": "sender",
          "type": "address"
        }
      ],
      "name": "Unauthorized",
      "type": "error"
    },
    {
      "anonymous": false,
      "inputs": [
        {
          "indexed": true,
          "internalType": "uint256",
          "name": "id",
          "type": "uint256"
        },
        {
          "indexed": true,
          "internalType": "address",
          "name": "initiator",
          "type": "address"
        }
      ],
      "name": "CampaignCreated",
      "type": "event"
    },
    {
      "anonymous": false,
      "inputs": [
        {
          "indexed": true,
          "internalType": "uint256",
          "name": "id",
          "type": "uint256"
        },
        {
          "indexed": true,
          "internalType": "address",
          "name": "creator",
          "type": "address"
        },
        {
          "indexed": true,
          "internalType": "address",
          "name": "depositor",
          "type": "address"
        },
        {
          "indexed": false,
          "internalType": "uint256",
          "name": "timeStamp",
          "type": "uint256"
        },
        {
          "indexed": false,
          "internalType": "uint256",
          "name": "amount",
          "type": "uint256"
        }
      ],
      "name": "Deposit",
      "type": "event"
    },
    {
      "anonymous": false,
      "inputs": [
        {
          "indexed": true,
          "internalType": "address",
          "name": "previousOwner",
          "type": "address"
        },
        {
          "indexed": true,
          "internalType": "address",
          "name": "newOwner",
          "type": "address"
        }
      ],
      "name": "OwnershipTransferred",
      "type": "event"
    },
    {
      "anonymous": false,
      "inputs": [
        {
          "indexed": false,
          "internalType": "address",
          "name": "account",
          "type": "address"
        }
      ],
      "name": "Paused",
      "type": "event"
    },
    {
      "anonymous": false,
      "inputs": [
        {
          "indexed": true,
          "internalType": "uint256",
          "name": "id",
          "type": "uint256"
        },
        {
          "indexed": true,
          "internalType": "address",
          "name": "creator",
          "type": "address"
        },
        {
          "indexed": true,
          "internalType": "address",
          "name": "sender",
          "type": "address"
        }
      ],
      "name": "SignerConfirmed",
      "type": "event"
    },
    {
      "anonymous": false,
      "inputs": [
        {
          "indexed": true,
          "internalType": "uint256",
          "name": "id",
          "type": "uint256"
        },
        {
          "indexed": true,
          "internalType": "address",
          "name": "creator",
          "type": "address"
        },
        {
          "indexed": true,
          "internalType": "address",
          "name": "sender",
          "type": "address"
        }
      ],
      "name": "SignerRejected",
      "type": "event"
    },
    {
      "anonymous": false,
      "inputs": [
        {
          "indexed": false,
          "internalType": "address",
          "name": "account",
          "type": "address"
        }
      ],
      "name": "Unpaused",
      "type": "event"
    },
    {
      "anonymous": false,
      "inputs": [
        {
          "indexed": true,
          "internalType": "uint256",
          "name": "id",
          "type": "uint256"
        },
        {
          "indexed": true,
          "internalType": "address",
          "name": "creator",
          "type": "address"
        },
        {
          "indexed": true,
          "internalType": "uint256",
          "name": "timeStamp",
          "type": "uint256"
        },
        {
          "indexed": false,
          "internalType": "uint256",
          "name": "amount",
          "type": "uint256"
        }
      ],
      "name": "Withdraw",
      "type": "event"
    },
    {
      "anonymous": false,
      "inputs": [
        {
          "indexed": true,
          "internalType": "uint256",
          "name": "id",
          "type": "uint256"
        },
        {
          "indexed": true,
          "internalType": "address",
          "name": "creator",
          "type": "address"
        },
        {
          "indexed": true,
          "internalType": "uint256",
          "name": "timeStamp",
          "type": "uint256"
        }
      ],
      "name": "WithdrawInitiated",
      "type": "event"
    },
    {
      "inputs": [
        {
          "internalType": "address",
          "name": "creator",
          "type": "address"
        }
      ],
      "name": "allCampaigns",
      "outputs": [
        {
          "components": [
            {
              "internalType": "bool",
              "name": "isActive",
              "type": "bool"
            },
            {
              "internalType": "bool",
              "name": "withdrawInitiated",
              "type": "bool"
            },
            {
              "internalType": "uint8",
              "name": "confirmations",
              "type": "uint8"
            },
            {
              "internalType": "uint8",
              "name": "signatoriesCount",
              "type": "uint8"
            },
            {
              "internalType": "enum Fintrust.State",
              "name": "state",
              "type": "uint8"
            },
            {
              "internalType": "address",
              "name": "initiator",
              "type": "address"
            },
            {
              "internalType": "uint128",
              "name": "startTimeStamp",
              "type": "uint128"
            },
            {
              "internalType": "uint128",
              "name": "endTimeStamp",
              "type": "uint128"
            },
            {
              "internalType": "uint256",
              "name": "id",
              "type": "uint256"
            },
            {
              "internalType": "uint256",
              "name": "amount",
              "type": "uint256"
            },
            {
              "internalType": "uint256",
              "name": "balance",
              "type": "uint256"
            },
            {
              "internalType": "uint256",
              "name": "deposited",
              "type": "uint256"
            },
            {
              "internalType": "string",
              "name": "url",
              "type": "string"
            },
            {
              "internalType": "address[]",
              "name": "signatories",
              "type": "address[]"
            }
          ],
          "internalType": "struct Fintrust.Campaign[]",
          "name": "",
          "type": "tuple[]"
        }
      ],
      "stateMutability": "view",
      "type": "function"
    },
    {
      "inputs": [
        {
          "internalType": "address",
          "name": "signatory",
          "type": "address"
        }
      ],
      "name": "allRef",
      "outputs": [
        {
          "components": [
            {
              "internalType": "address",
              "name": "initiator",
              "type": "address"
            },
            {
              "internalType": "bool",
              "name": "hasVoted",
              "type": "bool"
            },
            {
              "internalType": "bool",
              "name": "withdrawInitiated",
              "type": "bool"
            },
            {
              "internalType": "uint256",
              "name": "id",
              "type": "uint256"
            },
            {
              "internalType": "string",
              "name": "url",
              "type": "string"
            }
          ],
          "internalType": "struct Fintrust.CampaignRef[]",
          "name": "",
          "type": "tuple[]"
        }
      ],
      "stateMutability": "view",
      "type": "function"
    },
    {
      "inputs": [
        {
          "internalType": "address",
          "name": "signatory",
          "type": "address"
        }
      ],
      "name": "allWithdrawRequest",
      "outputs": [
        {
          "components": [
            {
              "internalType": "bool",
              "name": "isActive",
              "type": "bool"
            },
            {
              "internalType": "bool",
              "name": "withdrawInitiated",
              "type": "bool"
            },
            {
              "internalType": "uint8",
              "name": "confirmations",
              "type": "uint8"
            },
            {
              "internalType": "uint8",
              "name": "signatoriesCount",
              "type": "uint8"
            },
            {
              "internalType": "enum Fintrust.State",
              "name": "state",
              "type": "uint8"
            },
            {
              "internalType": "address",
              "name": "initiator",
              "type": "address"
            },
            {
              "internalType": "uint128",
              "name": "startTimeStamp",
              "type": "uint128"
            },
            {
              "internalType": "uint128",
              "name": "endTimeStamp",
              "type": "uint128"
            },
            {
              "internalType": "uint256",
              "name": "id",
              "type": "uint256"
            },
            {
              "internalType": "uint256",
              "name": "amount",
              "type": "uint256"
            },
            {
              "internalType": "uint256",
              "name": "balance",
              "type": "uint256"
            },
            {
              "internalType": "uint256",
              "name": "deposited",
              "type": "uint256"
            },
            {
              "internalType": "string",
              "name": "url",
              "type": "string"
            },
            {
              "internalType": "address[]",
              "name": "signatories",
              "type": "address[]"
            }
          ],
          "internalType": "struct Fintrust.Campaign[]",
          "name": "_campaigns",
          "type": "tuple[]"
        }
      ],
      "stateMutability": "view",
      "type": "function"
    },
    {
      "inputs": [
        {
          "internalType": "address",
          "name": "creator",
          "type": "address"
        },
        {
          "internalType": "uint256",
          "name": "_campaignId",
          "type": "uint256"
        }
      ],
      "name": "confirmWithdraw",
      "outputs": [],
      "stateMutability": "nonpayable",
      "type": "function"
    },
    {
      "inputs": [
        {
          "internalType": "string",
          "name": "_url",
          "type": "string"
        },
        {
          "internalType": "uint256",
          "name": "_amount",
          "type": "uint256"
        },
        {
          "internalType": "address[]",
          "name": "_signatories",
          "type": "address[]"
        }
      ],
      "name": "createCampaign",
      "outputs": [],
      "stateMutability": "nonpayable",
      "type": "function"
    },
    {
      "inputs": [
        {
          "internalType": "address",
          "name": "creator",
          "type": "address"
        },
        {
          "internalType": "uint256",
          "name": "_campaignId",
          "type": "uint256"
        },
        {
          "internalType": "uint256",
          "name": "amount",
          "type": "uint256"
        }
      ],
      "name": "donate",
      "outputs": [],
      "stateMutability": "payable",
      "type": "function"
    },
    {
      "inputs": [],
      "name": "getAllCampaigns",
      "outputs": [
        {
          "components": [
            {
              "internalType": "bool",
              "name": "isActive",
              "type": "bool"
            },
            {
              "internalType": "bool",
              "name": "withdrawInitiated",
              "type": "bool"
            },
            {
              "internalType": "uint8",
              "name": "confirmations",
              "type": "uint8"
            },
            {
              "internalType": "uint8",
              "name": "signatoriesCount",
              "type": "uint8"
            },
            {
              "internalType": "enum Fintrust.State",
              "name": "state",
              "type": "uint8"
            },
            {
              "internalType": "address",
              "name": "initiator",
              "type": "address"
            },
            {
              "internalType": "uint128",
              "name": "startTimeStamp",
              "type": "uint128"
            },
            {
              "internalType": "uint128",
              "name": "endTimeStamp",
              "type": "uint128"
            },
            {
              "internalType": "uint256",
              "name": "id",
              "type": "uint256"
            },
            {
              "internalType": "uint256",
              "name": "amount",
              "type": "uint256"
            },
            {
              "internalType": "uint256",
              "name": "balance",
              "type": "uint256"
            },
            {
              "internalType": "uint256",
              "name": "deposited",
              "type": "uint256"
            },
            {
              "internalType": "string",
              "name": "url",
              "type": "string"
            },
            {
              "internalType": "address[]",
              "name": "signatories",
              "type": "address[]"
            }
          ],
          "internalType": "struct Fintrust.Campaign[]",
          "name": "",
          "type": "tuple[]"
        }
      ],
      "stateMutability": "view",
      "type": "function"
    },
    {
      "inputs": [
        {
          "internalType": "uint256",
          "name": "_campaignId",
          "type": "uint256"
        },
        {
          "internalType": "address",
          "name": "creator",
          "type": "address"
        }
      ],
      "name": "getCampaign",
      "outputs": [
        {
          "components": [
            {
              "internalType": "bool",
              "name": "isActive",
              "type": "bool"
            },
            {
              "internalType": "bool",
              "name": "withdrawInitiated",
              "type": "bool"
            },
            {
              "internalType": "uint8",
              "name": "confirmations",
              "type": "uint8"
            },
            {
              "internalType": "uint8",
              "name": "signatoriesCount",
              "type": "uint8"
            },
            {
              "internalType": "enum Fintrust.State",
              "name": "state",
              "type": "uint8"
            },
            {
              "internalType": "address",
              "name": "initiator",
              "type": "address"
            },
            {
              "internalType": "uint128",
              "name": "startTimeStamp",
              "type": "uint128"
            },
            {
              "internalType": "uint128",
              "name": "endTimeStamp",
              "type": "uint128"
            },
            {
              "internalType": "uint256",
              "name": "id",
              "type": "uint256"
            },
            {
              "internalType": "uint256",
              "name": "amount",
              "type": "uint256"
            },
            {
              "internalType": "uint256",
              "name": "balance",
              "type": "uint256"
            },
            {
              "internalType": "uint256",
              "name": "deposited",
              "type": "uint256"
            },
            {
              "internalType": "string",
              "name": "url",
              "type": "string"
            },
            {
              "internalType": "address[]",
              "name": "signatories",
              "type": "address[]"
            }
          ],
          "internalType": "struct Fintrust.Campaign",
          "name": "",
          "type": "tuple"
        }
      ],
      "stateMutability": "view",
      "type": "function"
    },
    {
      "inputs": [],
      "name": "owner",
      "outputs": [
        {
          "internalType": "address",
          "name": "",
          "type": "address"
        }
      ],
      "stateMutability": "view",
      "type": "function"
    },
    {
      "inputs": [],
      "name": "pause",
      "outputs": [],
      "stateMutability": "nonpayable",
      "type": "function"
    },
    {
      "inputs": [],
      "name": "paused",
      "outputs": [
        {
          "internalType": "bool",
          "name": "",
          "type": "bool"
        }
      ],
      "stateMutability": "view",
      "type": "function"
    },
    {
      "inputs": [
        {
          "internalType": "address",
          "name": "creator",
          "type": "address"
        },
        {
          "internalType": "uint256",
          "name": "_campaignId",
          "type": "uint256"
        }
      ],
      "name": "rejectWithdraw",
      "outputs": [],
      "stateMutability": "nonpayable",
      "type": "function"
    },
    {
      "inputs": [],
      "name": "renounceOwnership",
      "outputs": [],
      "stateMutability": "nonpayable",
      "type": "function"
    },
    {
      "inputs": [
        {
          "internalType": "uint256",
          "name": "_campaignId",
          "type": "uint256"
        }
      ],
      "name": "requestWithdraw",
      "outputs": [],
      "stateMutability": "nonpayable",
      "type": "function"
    },
    {
      "inputs": [
        {
          "internalType": "address",
          "name": "newOwner",
          "type": "address"
        }
      ],
      "name": "transferOwnership",
      "outputs": [],
      "stateMutability": "nonpayable",
      "type": "function"
    },
    {
      "inputs": [],
      "name": "unpause",
      "outputs": [],
      "stateMutability": "nonpayable",
      "type": "function"
    },
    {
      "inputs": [
        {
          "internalType": "uint256",
          "name": "_campaignId",
          "type": "uint256"
        },
        {
          "internalType": "uint256",
          "name": "amount",
          "type": "uint256"
        }
      ],
      "name": "withdraw",
      "outputs": [],
      "stateMutability": "payable",
      "type": "function"
    },
    {
      "inputs": [],
      "name": "withdrawCharge",
      "outputs": [],
      "stateMutability": "nonpayable",
      "type": "function"
    }
  ],
  "bytecode": "0x60806040523480156200001157600080fd5b5060008060006101000a81548160ff0219169083151502179055506200004c620000406200005260201b60201c565b6200005a60201b60201c565b6200011f565b600033905090565b60008060019054906101000a900473ffffffffffffffffffffffffffffffffffffffff16905081600060016101000a81548173ffffffffffffffffffffffffffffffffffffffff021916908373ffffffffffffffffffffffffffffffffffffffff1602179055508173ffffffffffffffffffffffffffffffffffffffff168173ffffffffffffffffffffffffffffffffffffffff167f8be0079c531659141344cd1fd0a4f28419497f9722a3daafe3b4186f6b6457e060405160405180910390a35050565b615e77806200012f6000396000f3fe6080604052600436106101095760003560e01c80638456cb591161009557806395d46d001161006457806395d46d0014610322578063996e31d81461035f578063d0532c0914610388578063d46322761461039f578063f2fde38b146103bb57610109565b80638456cb591461028c57806386cdf604146102a35780638da5cb5b146102ce5780639512646a146102f957610109565b8063441a3e70116100dc578063441a3e70146101c857806344683845146101e45780635c975abb14610221578063715018a61461024c578063745400c91461026357610109565b80630488a2cf1461010e5780631a0117351461014b57806329d36c46146101885780633f4ba83a146101b1575b600080fd5b34801561011a57600080fd5b5061013560048036038101906101309190614a6f565b6103e4565b6040516101429190614edc565b60405180910390f35b34801561015757600080fd5b50610172600480360381019061016d9190614f2a565b610760565b60405161017f919061509f565b60405180910390f35b34801561019457600080fd5b506101af60048036038101906101aa91906150c1565b610ab8565b005b3480156101bd57600080fd5b506101c661109f565b005b6101e260048036038101906101dd9190615101565b6110b1565b005b3480156101f057600080fd5b5061020b60048036038101906102069190614a6f565b611a57565b6040516102189190614edc565b60405180910390f35b34801561022d57600080fd5b50610236612010565b6040516102439190615150565b60405180910390f35b34801561025857600080fd5b50610261612026565b005b34801561026f57600080fd5b5061028a6004803603810190610285919061516b565b61203a565b005b34801561029857600080fd5b506102a16126ea565b005b3480156102af57600080fd5b506102b86126fc565b6040516102c59190614edc565b60405180910390f35b3480156102da57600080fd5b506102e3612a39565b6040516102f091906151a7565b60405180910390f35b34801561030557600080fd5b50610320600480360381019061031b919061527d565b612a62565b005b34801561032e57600080fd5b5061034960048036038101906103449190614a6f565b613406565b604051610356919061544a565b60405180910390f35b34801561036b57600080fd5b50610386600480360381019061038191906150c1565b6135cc565b005b34801561039457600080fd5b5061039d613697565b005b6103b960048036038101906103b4919061546c565b61375d565b005b3480156103c757600080fd5b506103e260048036038101906103dd9190614a6f565b613edb565b005b6060600360008373ffffffffffffffffffffffffffffffffffffffff1673ffffffffffffffffffffffffffffffffffffffff168152602001908152602001600020805480602002602001604051908101604052809291908181526020016000905b828210156107555783829060005260206000209060080201604051806101c00160405290816000820160009054906101000a900460ff161515151581526020016000820160019054906101000a900460ff161515151581526020016000820160029054906101000a900460ff1660ff1660ff1681526020016000820160039054906101000a900460ff1660ff1660ff1681526020016000820160049054906101000a900460ff1660038111156104fe576104fd614aff565b5b60038111156105105761050f614aff565b5b81526020016000820160059054906101000a900473ffffffffffffffffffffffffffffffffffffffff1673ffffffffffffffffffffffffffffffffffffffff1673ffffffffffffffffffffffffffffffffffffffff1681526020016001820160009054906101000a90046fffffffffffffffffffffffffffffffff166fffffffffffffffffffffffffffffffff166fffffffffffffffffffffffffffffffff1681526020016001820160109054906101000a90046fffffffffffffffffffffffffffffffff166fffffffffffffffffffffffffffffffff166fffffffffffffffffffffffffffffffff16815260200160028201548152602001600382015481526020016004820154815260200160058201548152602001600682018054610636906154ee565b80601f0160208091040260200160405190810160405280929190818152602001828054610662906154ee565b80156106af5780601f10610684576101008083540402835291602001916106af565b820191906000526020600020905b81548152906001019060200180831161069257829003601f168201915b505050505081526020016007820180548060200260200160405190810160405280929190818152602001828054801561073d57602002820191906000526020600020905b8160009054906101000a900473ffffffffffffffffffffffffffffffffffffffff1673ffffffffffffffffffffffffffffffffffffffff16815260200190600101908083116106f3575b50505050508152505081526020019060010190610445565b505050509050919050565b6107686147cc565b600360008373ffffffffffffffffffffffffffffffffffffffff1673ffffffffffffffffffffffffffffffffffffffff16815260200190815260200160002083815481106107b9576107b8615520565b5b9060005260206000209060080201604051806101c00160405290816000820160009054906101000a900460ff161515151581526020016000820160019054906101000a900460ff161515151581526020016000820160029054906101000a900460ff1660ff1660ff1681526020016000820160039054906101000a900460ff1660ff1660ff1681526020016000820160049054906101000a900460ff16600381111561086857610867614aff565b5b600381111561087a57610879614aff565b5b81526020016000820160059054906101000a900473ffffffffffffffffffffffffffffffffffffffff1673ffffffffffffffffffffffffffffffffffffffff1673ffffffffffffffffffffffffffffffffffffffff1681526020016001820160009054906101000a90046fffffffffffffffffffffffffffffffff166fffffffffffffffffffffffffffffffff166fffffffffffffffffffffffffffffffff1681526020016001820160109054906101000a90046fffffffffffffffffffffffffffffffff166fffffffffffffffffffffffffffffffff166fffffffffffffffffffffffffffffffff168152602001600282015481526020016003820154815260200160048201548152602001600582015481526020016006820180546109a0906154ee565b80601f01602080910402602001604051908101604052809291908181526020018280546109cc906154ee565b8015610a195780601f106109ee57610100808354040283529160200191610a19565b820191906000526020600020905b8154815290600101906020018083116109fc57829003601f168201915b5050505050815260200160078201805480602002602001604051908101604052809291908181526020018280548015610aa757602002820191906000526020600020905b8160009054906101000a900473ffffffffffffffffffffffffffffffffffffffff1673ffffffffffffffffffffffffffffffffffffffff1681526020019060010190808311610a5d575b505050505081525050905092915050565b6000610ac48383613f5f565b9050600081604051806101c00160405290816000820160009054906101000a900460ff161515151581526020016000820160019054906101000a900460ff161515151581526020016000820160029054906101000a900460ff1660ff1660ff1681526020016000820160039054906101000a900460ff1660ff1660ff1681526020016000820160049054906101000a900460ff166003811115610b6a57610b69614aff565b5b6003811115610b7c57610b7b614aff565b5b81526020016000820160059054906101000a900473ffffffffffffffffffffffffffffffffffffffff1673ffffffffffffffffffffffffffffffffffffffff1673ffffffffffffffffffffffffffffffffffffffff1681526020016001820160009054906101000a90046fffffffffffffffffffffffffffffffff166fffffffffffffffffffffffffffffffff166fffffffffffffffffffffffffffffffff1681526020016001820160109054906101000a90046fffffffffffffffffffffffffffffffff166fffffffffffffffffffffffffffffffff166fffffffffffffffffffffffffffffffff16815260200160028201548152602001600382015481526020016004820154815260200160058201548152602001600682018054610ca2906154ee565b80601f0160208091040260200160405190810160405280929190818152602001828054610cce906154ee565b8015610d1b5780601f10610cf057610100808354040283529160200191610d1b565b820191906000526020600020905b815481529060010190602001808311610cfe57829003601f168201915b5050505050815260200160078201805480602002602001604051908101604052809291908181526020018280548015610da957602002820191906000526020600020905b8160009054906101000a900473ffffffffffffffffffffffffffffffffffffffff1673ffffffffffffffffffffffffffffffffffffffff1681526020019060010190808311610d5f575b505050505081525050905060008160200190151590811515815250506000816040019060ff16908160ff168152505080600360008673ffffffffffffffffffffffffffffffffffffffff1673ffffffffffffffffffffffffffffffffffffffff1681526020019081526020016000208481548110610e2a57610e29615520565b5b906000526020600020906008020160008201518160000160006101000a81548160ff02191690831515021790555060208201518160000160016101000a81548160ff02191690831515021790555060408201518160000160026101000a81548160ff021916908360ff16021790555060608201518160000160036101000a81548160ff021916908360ff16021790555060808201518160000160046101000a81548160ff02191690836003811115610ee557610ee4614aff565b5b021790555060a08201518160000160056101000a81548173ffffffffffffffffffffffffffffffffffffffff021916908373ffffffffffffffffffffffffffffffffffffffff16021790555060c08201518160010160006101000a8154816fffffffffffffffffffffffffffffffff02191690836fffffffffffffffffffffffffffffffff16021790555060e08201518160010160106101000a8154816fffffffffffffffffffffffffffffffff02191690836fffffffffffffffffffffffffffffffff1602179055506101008201518160020155610120820151816003015561014082015181600401556101608201518160050155610180820151816006019080519060200190610ff8929190614891565b506101a0820151816007019080519060200190611016929190614917565b509050503373ffffffffffffffffffffffffffffffffffffffff168260000160059054906101000a900473ffffffffffffffffffffffffffffffffffffffff1673ffffffffffffffffffffffffffffffffffffffff16847f1f29e6b93248b40abc43baa875e1e223cfbffbc58d44f7343e74af1cd0feee4c60405160405180910390a450505050565b6110a7614505565b6110af614583565b565b34668e1bc9bf040000146110fa576040517f08c379a00000000000000000000000000000000000000000000000000000000081526004016110f1906155ac565b60405180910390fd5b6000600360003373ffffffffffffffffffffffffffffffffffffffff1673ffffffffffffffffffffffffffffffffffffffff1681526020019081526020016000209050600081848154811061115257611151615520565b5b9060005260206000209060080201604051806101c00160405290816000820160009054906101000a900460ff161515151581526020016000820160019054906101000a900460ff161515151581526020016000820160029054906101000a900460ff1660ff1660ff1681526020016000820160039054906101000a900460ff1660ff1660ff1681526020016000820160049054906101000a900460ff16600381111561120157611200614aff565b5b600381111561121357611212614aff565b5b81526020016000820160059054906101000a900473ffffffffffffffffffffffffffffffffffffffff1673ffffffffffffffffffffffffffffffffffffffff1673ffffffffffffffffffffffffffffffffffffffff1681526020016001820160009054906101000a90046fffffffffffffffffffffffffffffffff166fffffffffffffffffffffffffffffffff166fffffffffffffffffffffffffffffffff1681526020016001820160109054906101000a90046fffffffffffffffffffffffffffffffff166fffffffffffffffffffffffffffffffff166fffffffffffffffffffffffffffffffff16815260200160028201548152602001600382015481526020016004820154815260200160058201548152602001600682018054611339906154ee565b80601f0160208091040260200160405190810160405280929190818152602001828054611365906154ee565b80156113b25780601f10611387576101008083540402835291602001916113b2565b820191906000526020600020905b81548152906001019060200180831161139557829003601f168201915b505050505081526020016007820180548060200260200160405190810160405280929190818152602001828054801561144057602002820191906000526020600020905b8160009054906101000a900473ffffffffffffffffffffffffffffffffffffffff1673ffffffffffffffffffffffffffffffffffffffff16815260200190600101908083116113f6575b50505050508152505090508060a0015173ffffffffffffffffffffffffffffffffffffffff163373ffffffffffffffffffffffffffffffffffffffff16146114bf57336040517f8e4a23d60000000000000000000000000000000000000000000000000000000081526004016114b691906151a7565b60405180910390fd5b600160038111156114d3576114d2614aff565b5b816080015160038111156114ea576114e9614aff565b5b1415801561152157506002600381111561150757611506614aff565b5b8160800151600381111561151e5761151d614aff565b5b14155b156115655783336040517f26508b5d00000000000000000000000000000000000000000000000000000000815260040161155c9291906155db565b60405180910390fd5b80602001516115a9576040517f08c379a00000000000000000000000000000000000000000000000000000000081526004016115a090615650565b60405180910390fd5b806060015160ff16816040015160ff16146115fb57336040517f8e4a23d60000000000000000000000000000000000000000000000000000000081526004016115f291906151a7565b60405180910390fd5b828161014001511015611643576040517f08c379a000000000000000000000000000000000000000000000000000000000815260040161163a906156bc565b60405180910390fd5b8260026000828254611655919061570b565b9250508190555060008160200190151590811515815250506000816040019060ff16908160ff16815250506002600381111561169457611693614aff565b5b816080015160038111156116ab576116aa614aff565b5b14156116fd576000838261014001516116c49190615761565b14156116fc576003816080019060038111156116e3576116e2614aff565b5b908160038111156116f7576116f6614aff565b5b815250505b5b8281610140018181516117109190615761565b915081815250506003816080019060038111156117305761172f614aff565b5b9081600381111561174457611743614aff565b5b815250508082858154811061175c5761175b615520565b5b906000526020600020906008020160008201518160000160006101000a81548160ff02191690831515021790555060208201518160000160016101000a81548160ff02191690831515021790555060408201518160000160026101000a81548160ff021916908360ff16021790555060608201518160000160036101000a81548160ff021916908360ff16021790555060808201518160000160046101000a81548160ff0219169083600381111561181757611816614aff565b5b021790555060a08201518160000160056101000a81548173ffffffffffffffffffffffffffffffffffffffff021916908373ffffffffffffffffffffffffffffffffffffffff16021790555060c08201518160010160006101000a8154816fffffffffffffffffffffffffffffffff02191690836fffffffffffffffffffffffffffffffff16021790555060e08201518160010160106101000a8154816fffffffffffffffffffffffffffffffff02191690836fffffffffffffffffffffffffffffffff160217905550610100820151816002015561012082015181600301556101408201518160040155610160820151816005015561018082015181600601908051906020019061192a929190614891565b506101a0820151816007019080519060200190611948929190614917565b50905050428160a0015173ffffffffffffffffffffffffffffffffffffffff16857fb0ecf14e184effded5473bba77dcfab32b094b77ac1fbb36beec2aef55587970866040516119989190615795565b60405180910390a460008160a0015173ffffffffffffffffffffffffffffffffffffffff16846040516119ca906157e1565b60006040518083038185875af1925050503d8060008114611a07576040519150601f19603f3d011682016040523d82523d6000602084013e611a0c565b606091505b5050905080611a50576040517f08c379a0000000000000000000000000000000000000000000000000000000008152600401611a4790615842565b60405180910390fd5b5050505050565b60606000600460008473ffffffffffffffffffffffffffffffffffffffff1673ffffffffffffffffffffffffffffffffffffffff168152602001908152602001600020805480602002602001604051908101604052809291908181526020016000905b82821015611c1457838290600052602060002090600302016040518060a00160405290816000820160009054906101000a900473ffffffffffffffffffffffffffffffffffffffff1673ffffffffffffffffffffffffffffffffffffffff1673ffffffffffffffffffffffffffffffffffffffff1681526020016000820160149054906101000a900460ff161515151581526020016000820160159054906101000a900460ff1615151515815260200160018201548152602001600282018054611b83906154ee565b80601f0160208091040260200160405190810160405280929190818152602001828054611baf906154ee565b8015611bfc5780601f10611bd157610100808354040283529160200191611bfc565b820191906000526020600020905b815481529060010190602001808311611bdf57829003601f168201915b50505050508152505081526020019060010190611aba565b5050505090506000805b8251811015612008576000838281518110611c3c57611c3b615520565b5b60200260200101516000015190506000848381518110611c5f57611c5e615520565b5b60200260200101516060015190506000600360008473ffffffffffffffffffffffffffffffffffffffff1673ffffffffffffffffffffffffffffffffffffffff1681526020019081526020016000208281548110611cc057611cbf615520565b5b9060005260206000209060080201604051806101c00160405290816000820160009054906101000a900460ff161515151581526020016000820160019054906101000a900460ff161515151581526020016000820160029054906101000a900460ff1660ff1660ff1681526020016000820160039054906101000a900460ff1660ff1660ff1681526020016000820160049054906101000a900460ff166003811115611d6f57611d6e614aff565b5b6003811115611d8157611d80614aff565b5b81526020016000820160059054906101000a900473ffffffffffffffffffffffffffffffffffffffff1673ffffffffffffffffffffffffffffffffffffffff1673ffffffffffffffffffffffffffffffffffffffff1681526020016001820160009054906101000a90046fffffffffffffffffffffffffffffffff166fffffffffffffffffffffffffffffffff166fffffffffffffffffffffffffffffffff1681526020016001820160109054906101000a90046fffffffffffffffffffffffffffffffff166fffffffffffffffffffffffffffffffff166fffffffffffffffffffffffffffffffff16815260200160028201548152602001600382015481526020016004820154815260200160058201548152602001600682018054611ea7906154ee565b80601f0160208091040260200160405190810160405280929190818152602001828054611ed3906154ee565b8015611f205780601f10611ef557610100808354040283529160200191611f20565b820191906000526020600020905b815481529060010190602001808311611f0357829003601f168201915b5050505050815260200160078201805480602002602001604051908101604052809291908181526020018280548015611fae57602002820191906000526020600020905b8160009054906101000a900473ffffffffffffffffffffffffffffffffffffffff1673ffffffffffffffffffffffffffffffffffffffff1681526020019060010190808311611f64575b5050505050815250509050806020015115611ff25780878681518110611fd757611fd6615520565b5b6020026020010181905250600185611fef919061570b565b94505b505050808061200090615862565b915050611c1e565b505050919050565b60008060009054906101000a900460ff16905090565b61202e614505565b61203860006145e5565b565b6000600360003373ffffffffffffffffffffffffffffffffffffffff1673ffffffffffffffffffffffffffffffffffffffff1681526020019081526020016000209050600081838154811061209257612091615520565b5b9060005260206000209060080201604051806101c00160405290816000820160009054906101000a900460ff161515151581526020016000820160019054906101000a900460ff161515151581526020016000820160029054906101000a900460ff1660ff1660ff1681526020016000820160039054906101000a900460ff1660ff1660ff1681526020016000820160049054906101000a900460ff16600381111561214157612140614aff565b5b600381111561215357612152614aff565b5b81526020016000820160059054906101000a900473ffffffffffffffffffffffffffffffffffffffff1673ffffffffffffffffffffffffffffffffffffffff1673ffffffffffffffffffffffffffffffffffffffff1681526020016001820160009054906101000a90046fffffffffffffffffffffffffffffffff166fffffffffffffffffffffffffffffffff166fffffffffffffffffffffffffffffffff1681526020016001820160109054906101000a90046fffffffffffffffffffffffffffffffff166fffffffffffffffffffffffffffffffff166fffffffffffffffffffffffffffffffff16815260200160028201548152602001600382015481526020016004820154815260200160058201548152602001600682018054612279906154ee565b80601f01602080910402602001604051908101604052809291908181526020018280546122a5906154ee565b80156122f25780601f106122c7576101008083540402835291602001916122f2565b820191906000526020600020905b8154815290600101906020018083116122d557829003601f168201915b505050505081526020016007820180548060200260200160405190810160405280929190818152602001828054801561238057602002820191906000526020600020905b8160009054906101000a900473ffffffffffffffffffffffffffffffffffffffff1673ffffffffffffffffffffffffffffffffffffffff1681526020019060010190808311612336575b50505050508152505090506001600381111561239f5761239e614aff565b5b816080015160038111156123b6576123b5614aff565b5b146123fe57828160a001516040517f26508b5d0000000000000000000000000000000000000000000000000000000081526004016123f59291906155db565b60405180910390fd5b806020015115612443576040517f08c379a000000000000000000000000000000000000000000000000000000000815260040161243a906158f7565b60405180910390fd5b60008161016001511161248b576040517f08c379a000000000000000000000000000000000000000000000000000000000815260040161248290615963565b60405180910390fd5b6001816020019015159081151581525050808284815481106124b0576124af615520565b5b906000526020600020906008020160008201518160000160006101000a81548160ff02191690831515021790555060208201518160000160016101000a81548160ff02191690831515021790555060408201518160000160026101000a81548160ff021916908360ff16021790555060608201518160000160036101000a81548160ff021916908360ff16021790555060808201518160000160046101000a81548160ff0219169083600381111561256b5761256a614aff565b5b021790555060a08201518160000160056101000a81548173ffffffffffffffffffffffffffffffffffffffff021916908373ffffffffffffffffffffffffffffffffffffffff16021790555060c08201518160010160006101000a8154816fffffffffffffffffffffffffffffffff02191690836fffffffffffffffffffffffffffffffff16021790555060e08201518160010160106101000a8154816fffffffffffffffffffffffffffffffff02191690836fffffffffffffffffffffffffffffffff160217905550610100820151816002015561012082015181600301556101408201518160040155610160820151816005015561018082015181600601908051906020019061267e929190614891565b506101a082015181600701908051906020019061269c929190614917565b50905050423373ffffffffffffffffffffffffffffffffffffffff16847f35572b4263de54e794ffcb886cb01a64870892fe896854fd2ca93810d5c66f7e60405160405180910390a4505050565b6126f2614505565b6126fa6146aa565b565b60606005805480602002602001604051908101604052809291908181526020016000905b82821015612a305783829060005260206000209060080201604051806101c00160405290816000820160009054906101000a900460ff161515151581526020016000820160019054906101000a900460ff161515151581526020016000820160029054906101000a900460ff1660ff1660ff1681526020016000820160039054906101000a900460ff1660ff1660ff1681526020016000820160049054906101000a900460ff1660038111156127d9576127d8614aff565b5b60038111156127eb576127ea614aff565b5b81526020016000820160059054906101000a900473ffffffffffffffffffffffffffffffffffffffff1673ffffffffffffffffffffffffffffffffffffffff1673ffffffffffffffffffffffffffffffffffffffff1681526020016001820160009054906101000a90046fffffffffffffffffffffffffffffffff166fffffffffffffffffffffffffffffffff166fffffffffffffffffffffffffffffffff1681526020016001820160109054906101000a90046fffffffffffffffffffffffffffffffff166fffffffffffffffffffffffffffffffff166fffffffffffffffffffffffffffffffff16815260200160028201548152602001600382015481526020016004820154815260200160058201548152602001600682018054612911906154ee565b80601f016020809104026020016040519081016040528092919081815260200182805461293d906154ee565b801561298a5780601f1061295f5761010080835404028352916020019161298a565b820191906000526020600020905b81548152906001019060200180831161296d57829003601f168201915b5050505050815260200160078201805480602002602001604051908101604052809291908181526020018280548015612a1857602002820191906000526020600020905b8160009054906101000a900473ffffffffffffffffffffffffffffffffffffffff1673ffffffffffffffffffffffffffffffffffffffff16815260200190600101908083116129ce575b50505050508152505081526020019060010190612720565b50505050905090565b60008060019054906101000a900473ffffffffffffffffffffffffffffffffffffffff16905090565b612a6b3361470c565b612aaa576040517f08c379a0000000000000000000000000000000000000000000000000000000008152600401612aa1906159cf565b60405180910390fd5b612ab2614731565b6101f4831015612af957826040517f3728b83d000000000000000000000000000000000000000000000000000000008152600401612af09190615795565b60405180910390fd5b6003828290501080612b0e575060fa82829050115b15612b4e576040517f08c379a0000000000000000000000000000000000000000000000000000000008152600401612b4590615a3b565b60405180910390fd5b6000600360003373ffffffffffffffffffffffffffffffffffffffff1673ffffffffffffffffffffffffffffffffffffffff168152602001908152602001600020905060008180549050905060008484905090506000604051806101c00160405280600115158152602001600015158152602001600060ff1681526020018360ff16815260200160016003811115612be957612be8614aff565b5b81526020013373ffffffffffffffffffffffffffffffffffffffff168152602001426fffffffffffffffffffffffffffffffff16815260200160006fffffffffffffffffffffffffffffffff16815260200184815260200188815260200160008152602001600081526020018a8a8080601f016020809104026020016040519081016040528093929190818152602001838380828437600081840152601f19601f820116905080830192505050505050508152602001878780806020026020016040519081016040528093929190818152602001838360200280828437600081840152601f19601f8201169050808301925050505050505081525090508381908060018154018082558091505060019003906000526020600020906008020160009091909190915060008201518160000160006101000a81548160ff02191690831515021790555060208201518160000160016101000a81548160ff02191690831515021790555060408201518160000160026101000a81548160ff021916908360ff16021790555060608201518160000160036101000a81548160ff021916908360ff16021790555060808201518160000160046101000a81548160ff02191690836003811115612dbe57612dbd614aff565b5b021790555060a08201518160000160056101000a81548173ffffffffffffffffffffffffffffffffffffffff021916908373ffffffffffffffffffffffffffffffffffffffff16021790555060c08201518160010160006101000a8154816fffffffffffffffffffffffffffffffff02191690836fffffffffffffffffffffffffffffffff16021790555060e08201518160010160106101000a8154816fffffffffffffffffffffffffffffffff02191690836fffffffffffffffffffffffffffffffff1602179055506101008201518160020155610120820151816003015561014082015181600401556101608201518160050155610180820151816006019080519060200190612ed1929190614891565b506101a0820151816007019080519060200190612eef929190614917565b5050506000868680806020026020016040519081016040528093929190818152602001838360200280828437600081840152601f19601f82011690508083019250505050505050905060005b81518110156131a3576000828281518110612f5957612f58615520565b5b602002602001015190503373ffffffffffffffffffffffffffffffffffffffff168173ffffffffffffffffffffffffffffffffffffffff161415612fd2576040517f08c379a0000000000000000000000000000000000000000000000000000000008152600401612fc990615aa7565b60405180910390fd5b612fdb8161470c565b61301a576040517f08c379a000000000000000000000000000000000000000000000000000000000815260040161301190615b13565b60405180910390fd5b60006040518060a001604052808660a0015173ffffffffffffffffffffffffffffffffffffffff168152602001600015158152602001600015158152602001866101000151815260200186610180015181525090506000600460008473ffffffffffffffffffffffffffffffffffffffff1673ffffffffffffffffffffffffffffffffffffffff16815260200190815260200160002090508082908060018154018082558091505060019003906000526020600020906003020160009091909190915060008201518160000160006101000a81548173ffffffffffffffffffffffffffffffffffffffff021916908373ffffffffffffffffffffffffffffffffffffffff16021790555060208201518160000160146101000a81548160ff02191690831515021790555060408201518160000160156101000a81548160ff02191690831515021790555060608201518160010155608082015181600201908051906020019061318a929190614891565b505050505050808061319b90615862565b915050612f3b565b50600582908060018154018082558091505060019003906000526020600020906008020160009091909190915060008201518160000160006101000a81548160ff02191690831515021790555060208201518160000160016101000a81548160ff02191690831515021790555060408201518160000160026101000a81548160ff021916908360ff16021790555060608201518160000160036101000a81548160ff021916908360ff16021790555060808201518160000160046101000a81548160ff0219169083600381111561327d5761327c614aff565b5b021790555060a08201518160000160056101000a81548173ffffffffffffffffffffffffffffffffffffffff021916908373ffffffffffffffffffffffffffffffffffffffff16021790555060c08201518160010160006101000a8154816fffffffffffffffffffffffffffffffff02191690836fffffffffffffffffffffffffffffffff16021790555060e08201518160010160106101000a8154816fffffffffffffffffffffffffffffffff02191690836fffffffffffffffffffffffffffffffff1602179055506101008201518160020155610120820151816003015561014082015181600401556101608201518160050155610180820151816006019080519060200190613390929190614891565b506101a08201518160070190805190602001906133ae929190614917565b5050503373ffffffffffffffffffffffffffffffffffffffff168261010001517f633109eec20320eded000fc1e2634211aa7e92ba3f5b15faf6dcdafca05094e460405160405180910390a350505050505050505050565b6060600460008373ffffffffffffffffffffffffffffffffffffffff1673ffffffffffffffffffffffffffffffffffffffff168152602001908152602001600020805480602002602001604051908101604052809291908181526020016000905b828210156135c157838290600052602060002090600302016040518060a00160405290816000820160009054906101000a900473ffffffffffffffffffffffffffffffffffffffff1673ffffffffffffffffffffffffffffffffffffffff1673ffffffffffffffffffffffffffffffffffffffff1681526020016000820160149054906101000a900460ff161515151581526020016000820160159054906101000a900460ff1615151515815260200160018201548152602001600282018054613530906154ee565b80601f016020809104026020016040519081016040528092919081815260200182805461355c906154ee565b80156135a95780601f1061357e576101008083540402835291602001916135a9565b820191906000526020600020905b81548152906001019060200180831161358c57829003601f168201915b50505050508152505081526020019060010190613467565b505050509050919050565b60006135d88383613f5f565b905060018160000160028282829054906101000a900460ff166135fb9190615b33565b92506101000a81548160ff021916908360ff1602179055503373ffffffffffffffffffffffffffffffffffffffff168160000160059054906101000a900473ffffffffffffffffffffffffffffffffffffffff1673ffffffffffffffffffffffffffffffffffffffff16837f3ffcd92ab0feb4b6871585fae9ce50f9ef84e1149eff4f2d573bfe390c37f05a60405160405180910390a4505050565b61369f614505565b60006136a9612a39565b905060008173ffffffffffffffffffffffffffffffffffffffff166002546040516136d3906157e1565b60006040518083038185875af1925050503d8060008114613710576040519150601f19603f3d011682016040523d82523d6000602084013e613715565b606091505b5050905080613759576040517f08c379a000000000000000000000000000000000000000000000000000000000815260040161375090615842565b60405180910390fd5b5050565b613765614731565b8034146137a7576040517f08c379a000000000000000000000000000000000000000000000000000000000815260040161379e90615bb6565b60405180910390fd5b6000600360008573ffffffffffffffffffffffffffffffffffffffff1673ffffffffffffffffffffffffffffffffffffffff168152602001908152602001600020905060008184815481106137ff576137fe615520565b5b9060005260206000209060080201604051806101c00160405290816000820160009054906101000a900460ff161515151581526020016000820160019054906101000a900460ff161515151581526020016000820160029054906101000a900460ff1660ff1660ff1681526020016000820160039054906101000a900460ff1660ff1660ff1681526020016000820160049054906101000a900460ff1660038111156138ae576138ad614aff565b5b60038111156138c0576138bf614aff565b5b81526020016000820160059054906101000a900473ffffffffffffffffffffffffffffffffffffffff1673ffffffffffffffffffffffffffffffffffffffff1673ffffffffffffffffffffffffffffffffffffffff1681526020016001820160009054906101000a90046fffffffffffffffffffffffffffffffff166fffffffffffffffffffffffffffffffff166fffffffffffffffffffffffffffffffff1681526020016001820160109054906101000a90046fffffffffffffffffffffffffffffffff166fffffffffffffffffffffffffffffffff166fffffffffffffffffffffffffffffffff168152602001600282015481526020016003820154815260200160048201548152602001600582015481526020016006820180546139e6906154ee565b80601f0160208091040260200160405190810160405280929190818152602001828054613a12906154ee565b8015613a5f5780601f10613a3457610100808354040283529160200191613a5f565b820191906000526020600020905b815481529060010190602001808311613a4257829003601f168201915b5050505050815260200160078201805480602002602001604051908101604052809291908181526020018280548015613aed57602002820191906000526020600020905b8160009054906101000a900473ffffffffffffffffffffffffffffffffffffffff1673ffffffffffffffffffffffffffffffffffffffff1681526020019060010190808311613aa3575b505050505081525050905060016003811115613b0c57613b0b614aff565b5b81608001516003811115613b2357613b22614aff565b5b14613b6b57838160a001516040517f26508b5d000000000000000000000000000000000000000000000000000000008152600401613b629291906155db565b60405180910390fd5b8060000151613bb157836040517ff2e9320b000000000000000000000000000000000000000000000000000000008152600401613ba89190615795565b60405180910390fd5b80610120015181610160015110613c3057600281608001906003811115613bdb57613bda614aff565b5b90816003811115613bef57613bee614aff565b5b81525050836040517f9444c91d000000000000000000000000000000000000000000000000000000008152600401613c279190615795565b60405180910390fd5b348161014001818151613c43919061570b565b91508181525050348161016001818151613c5d919061570b565b9150818152505080828581548110613c7857613c77615520565b5b906000526020600020906008020160008201518160000160006101000a81548160ff02191690831515021790555060208201518160000160016101000a81548160ff02191690831515021790555060408201518160000160026101000a81548160ff021916908360ff16021790555060608201518160000160036101000a81548160ff021916908360ff16021790555060808201518160000160046101000a81548160ff02191690836003811115613d3357613d32614aff565b5b021790555060a08201518160000160056101000a81548173ffffffffffffffffffffffffffffffffffffffff021916908373ffffffffffffffffffffffffffffffffffffffff16021790555060c08201518160010160006101000a8154816fffffffffffffffffffffffffffffffff02191690836fffffffffffffffffffffffffffffffff16021790555060e08201518160010160106101000a8154816fffffffffffffffffffffffffffffffff02191690836fffffffffffffffffffffffffffffffff1602179055506101008201518160020155610120820151816003015561014082015181600401556101608201518160050155610180820151816006019080519060200190613e46929190614891565b506101a0820151816007019080519060200190613e64929190614917565b509050503373ffffffffffffffffffffffffffffffffffffffff168160a0015173ffffffffffffffffffffffffffffffffffffffff16857feb65d0f36862bbd8763c5e2c983c9d753267d223eee35a224d8d0a9d7ef433a24287604051613ecc929190615bd6565b60405180910390a45050505050565b613ee3614505565b600073ffffffffffffffffffffffffffffffffffffffff168173ffffffffffffffffffffffffffffffffffffffff161415613f53576040517f08c379a0000000000000000000000000000000000000000000000000000000008152600401613f4a90615c71565b60405180910390fd5b613f5c816145e5565b50565b600080600360008573ffffffffffffffffffffffffffffffffffffffff1673ffffffffffffffffffffffffffffffffffffffff16815260200190815260200160002090506000818481548110613fb857613fb7615520565b5b9060005260206000209060080201905060016003811115613fdc57613fdb614aff565b5b8160000160049054906101000a900460ff16600381111561400057613fff614aff565b5b146140445783856040517f26508b5d00000000000000000000000000000000000000000000000000000000815260040161403b9291906155db565b60405180910390fd5b8060000160019054906101000a900460ff16614095576040517f08c379a000000000000000000000000000000000000000000000000000000000815260040161408c90615650565b60405180910390fd5b6000600460003373ffffffffffffffffffffffffffffffffffffffff1673ffffffffffffffffffffffffffffffffffffffff168152602001908152602001600020805480602002602001604051908101604052809291908181526020016000905b8282101561425057838290600052602060002090600302016040518060a00160405290816000820160009054906101000a900473ffffffffffffffffffffffffffffffffffffffff1673ffffffffffffffffffffffffffffffffffffffff1673ffffffffffffffffffffffffffffffffffffffff1681526020016000820160149054906101000a900460ff161515151581526020016000820160159054906101000a900460ff16151515158152602001600182015481526020016002820180546141bf906154ee565b80601f01602080910402602001604051908101604052809291908181526020018280546141eb906154ee565b80156142385780601f1061420d57610100808354040283529160200191614238565b820191906000526020600020905b81548152906001019060200180831161421b57829003601f168201915b505050505081525050815260200190600101906140f6565b50505050905060006142606149a1565b600080600090505b845181101561434c57856002015485828151811061428957614288615520565b5b60200260200101516060015114801561430f57508560000160059054906101000a900473ffffffffffffffffffffffffffffffffffffffff1673ffffffffffffffffffffffffffffffffffffffff168582815181106142eb576142ea615520565b5b60200260200101516000015173ffffffffffffffffffffffffffffffffffffffff16145b15614339576001935084818151811061432b5761432a615520565b5b602002602001015192508091505b808061434490615862565b915050614268565b508261438f57336040517f8e4a23d600000000000000000000000000000000000000000000000000000000815260040161438691906151a7565b60405180910390fd5b8160200151156143d4576040517f08c379a00000000000000000000000000000000000000000000000000000000081526004016143cb90615cdd565b60405180910390fd5b600182602001901515908115158152505081600460003373ffffffffffffffffffffffffffffffffffffffff1673ffffffffffffffffffffffffffffffffffffffff168152602001908152602001600020828154811061443757614436615520565b5b906000526020600020906003020160008201518160000160006101000a81548173ffffffffffffffffffffffffffffffffffffffff021916908373ffffffffffffffffffffffffffffffffffffffff16021790555060208201518160000160146101000a81548160ff02191690831515021790555060408201518160000160156101000a81548160ff0219169083151502179055506060820151816001015560808201518160020190805190602001906144f2929190614891565b5090505084965050505050505092915050565b61450d61477b565b73ffffffffffffffffffffffffffffffffffffffff1661452b612a39565b73ffffffffffffffffffffffffffffffffffffffff1614614581576040517f08c379a000000000000000000000000000000000000000000000000000000000815260040161457890615d49565b60405180910390fd5b565b61458b614783565b60008060006101000a81548160ff0219169083151502179055507f5db9ee0a495bf2e6ff9c91a7834c1ba4fdd244a5e8aa4e537bd38aeae4b073aa6145ce61477b565b6040516145db91906151a7565b60405180910390a1565b60008060019054906101000a900473ffffffffffffffffffffffffffffffffffffffff16905081600060016101000a81548173ffffffffffffffffffffffffffffffffffffffff021916908373ffffffffffffffffffffffffffffffffffffffff1602179055508173ffffffffffffffffffffffffffffffffffffffff168173ffffffffffffffffffffffffffffffffffffffff167f8be0079c531659141344cd1fd0a4f28419497f9722a3daafe3b4186f6b6457e060405160405180910390a35050565b6146b2614731565b60016000806101000a81548160ff0219169083151502179055507f62e78cea01bee320cd4e420270b5ea74000d11b0c9f74754ebdbfc544b05a2586146f561477b565b60405161470291906151a7565b60405180910390a1565b600080823b9050600081141561472657600191505061472c565b60009150505b919050565b614739612010565b15614779576040517f08c379a000000000000000000000000000000000000000000000000000000000815260040161477090615db5565b60405180910390fd5b565b600033905090565b61478b612010565b6147ca576040517f08c379a00000000000000000000000000000000000000000000000000000000081526004016147c190615e21565b60405180910390fd5b565b604051806101c00160405280600015158152602001600015158152602001600060ff168152602001600060ff1681526020016000600381111561481257614811614aff565b5b8152602001600073ffffffffffffffffffffffffffffffffffffffff16815260200160006fffffffffffffffffffffffffffffffff16815260200160006fffffffffffffffffffffffffffffffff1681526020016000815260200160008152602001600081526020016000815260200160608152602001606081525090565b82805461489d906154ee565b90600052602060002090601f0160209004810192826148bf5760008555614906565b82601f106148d857805160ff1916838001178555614906565b82800160010185558215614906579182015b828111156149055782518255916020019190600101906148ea565b5b50905061491391906149ea565b5090565b828054828255906000526020600020908101928215614990579160200282015b8281111561498f5782518260006101000a81548173ffffffffffffffffffffffffffffffffffffffff021916908373ffffffffffffffffffffffffffffffffffffffff16021790555091602001919060010190614937565b5b50905061499d91906149ea565b5090565b6040518060a00160405280600073ffffffffffffffffffffffffffffffffffffffff16815260200160001515815260200160001515815260200160008152602001606081525090565b5b80821115614a035760008160009055506001016149eb565b5090565b600080fd5b600080fd5b600073ffffffffffffffffffffffffffffffffffffffff82169050919050565b6000614a3c82614a11565b9050919050565b614a4c81614a31565b8114614a5757600080fd5b50565b600081359050614a6981614a43565b92915050565b600060208284031215614a8557614a84614a07565b5b6000614a9384828501614a5a565b91505092915050565b600081519050919050565b600082825260208201905092915050565b6000819050602082019050919050565b60008115159050919050565b614add81614ac8565b82525050565b600060ff82169050919050565b614af981614ae3565b82525050565b7f4e487b7100000000000000000000000000000000000000000000000000000000600052602160045260246000fd5b60048110614b3f57614b3e614aff565b5b50565b6000819050614b5082614b2e565b919050565b6000614b6082614b42565b9050919050565b614b7081614b55565b82525050565b614b7f81614a31565b82525050565b60006fffffffffffffffffffffffffffffffff82169050919050565b614baa81614b85565b82525050565b6000819050919050565b614bc381614bb0565b82525050565b600081519050919050565b600082825260208201905092915050565b60005b83811015614c03578082015181840152602081019050614be8565b83811115614c12576000848401525b50505050565b6000601f19601f8301169050919050565b6000614c3482614bc9565b614c3e8185614bd4565b9350614c4e818560208601614be5565b614c5781614c18565b840191505092915050565b600081519050919050565b600082825260208201905092915050565b6000819050602082019050919050565b6000614c9a8383614b76565b60208301905092915050565b6000602082019050919050565b6000614cbe82614c62565b614cc88185614c6d565b9350614cd383614c7e565b8060005b83811015614d04578151614ceb8882614c8e565b9750614cf683614ca6565b925050600181019050614cd7565b5085935050505092915050565b60006101c083016000830151614d2a6000860182614ad4565b506020830151614d3d6020860182614ad4565b506040830151614d506040860182614af0565b506060830151614d636060860182614af0565b506080830151614d766080860182614b67565b5060a0830151614d8960a0860182614b76565b5060c0830151614d9c60c0860182614ba1565b5060e0830151614daf60e0860182614ba1565b50610100830151614dc4610100860182614bba565b50610120830151614dd9610120860182614bba565b50610140830151614dee610140860182614bba565b50610160830151614e03610160860182614bba565b50610180830151848203610180860152614e1d8282614c29565b9150506101a08301518482036101a0860152614e398282614cb3565b9150508091505092915050565b6000614e528383614d11565b905092915050565b6000602082019050919050565b6000614e7282614a9c565b614e7c8185614aa7565b935083602082028501614e8e85614ab8565b8060005b85811015614eca5784840389528151614eab8582614e46565b9450614eb683614e5a565b925060208a01995050600181019050614e92565b50829750879550505050505092915050565b60006020820190508181036000830152614ef68184614e67565b905092915050565b614f0781614bb0565b8114614f1257600080fd5b50565b600081359050614f2481614efe565b92915050565b60008060408385031215614f4157614f40614a07565b5b6000614f4f85828601614f15565b9250506020614f6085828601614a5a565b9150509250929050565b60006101c083016000830151614f836000860182614ad4565b506020830151614f966020860182614ad4565b506040830151614fa96040860182614af0565b506060830151614fbc6060860182614af0565b506080830151614fcf6080860182614b67565b5060a0830151614fe260a0860182614b76565b5060c0830151614ff560c0860182614ba1565b5060e083015161500860e0860182614ba1565b5061010083015161501d610100860182614bba565b50610120830151615032610120860182614bba565b50610140830151615047610140860182614bba565b5061016083015161505c610160860182614bba565b506101808301518482036101808601526150768282614c29565b9150506101a08301518482036101a08601526150928282614cb3565b9150508091505092915050565b600060208201905081810360008301526150b98184614f6a565b905092915050565b600080604083850312156150d8576150d7614a07565b5b60006150e685828601614a5a565b92505060206150f785828601614f15565b9150509250929050565b6000806040838503121561511857615117614a07565b5b600061512685828601614f15565b925050602061513785828601614f15565b9150509250929050565b61514a81614ac8565b82525050565b60006020820190506151656000830184615141565b92915050565b60006020828403121561518157615180614a07565b5b600061518f84828501614f15565b91505092915050565b6151a181614a31565b82525050565b60006020820190506151bc6000830184615198565b92915050565b600080fd5b600080fd5b600080fd5b60008083601f8401126151e7576151e66151c2565b5b8235905067ffffffffffffffff811115615204576152036151c7565b5b6020830191508360018202830111156152205761521f6151cc565b5b9250929050565b60008083601f84011261523d5761523c6151c2565b5b8235905067ffffffffffffffff81111561525a576152596151c7565b5b602083019150836020820283011115615276576152756151cc565b5b9250929050565b60008060008060006060868803121561529957615298614a07565b5b600086013567ffffffffffffffff8111156152b7576152b6614a0c565b5b6152c3888289016151d1565b955095505060206152d688828901614f15565b935050604086013567ffffffffffffffff8111156152f7576152f6614a0c565b5b61530388828901615227565b92509250509295509295909350565b600081519050919050565b600082825260208201905092915050565b6000819050602082019050919050565b600060a0830160008301516153566000860182614b76565b5060208301516153696020860182614ad4565b50604083015161537c6040860182614ad4565b50606083015161538f6060860182614bba565b50608083015184820360808601526153a78282614c29565b9150508091505092915050565b60006153c0838361533e565b905092915050565b6000602082019050919050565b60006153e082615312565b6153ea818561531d565b9350836020820285016153fc8561532e565b8060005b85811015615438578484038952815161541985826153b4565b9450615424836153c8565b925060208a01995050600181019050615400565b50829750879550505050505092915050565b6000602082019050818103600083015261546481846153d5565b905092915050565b60008060006060848603121561548557615484614a07565b5b600061549386828701614a5a565b93505060206154a486828701614f15565b92505060406154b586828701614f15565b9150509250925092565b7f4e487b7100000000000000000000000000000000000000000000000000000000600052602260045260246000fd5b6000600282049050600182168061550657607f821691505b6020821081141561551a576155196154bf565b5b50919050565b7f4e487b7100000000000000000000000000000000000000000000000000000000600052603260045260246000fd5b600082825260208201905092915050565b7f496e76616c696420436861726765000000000000000000000000000000000000600082015250565b6000615596600e8361554f565b91506155a182615560565b602082019050919050565b600060208201905081810360008301526155c581615589565b9050919050565b6155d581614bb0565b82525050565b60006040820190506155f060008301856155cc565b6155fd6020830184615198565b9392505050565b7f63616d706169676e207769746864726177206e6f742072657175657374656400600082015250565b600061563a601f8361554f565b915061564582615604565b602082019050919050565b600060208201905081810360008301526156698161562d565b9050919050565b7f496e73756666696369656e742046756e64730000000000000000000000000000600082015250565b60006156a660128361554f565b91506156b182615670565b602082019050919050565b600060208201905081810360008301526156d581615699565b9050919050565b7f4e487b7100000000000000000000000000000000000000000000000000000000600052601160045260246000fd5b600061571682614bb0565b915061572183614bb0565b9250827fffffffffffffffffffffffffffffffffffffffffffffffffffffffffffffffff03821115615756576157556156dc565b5b828201905092915050565b600061576c82614bb0565b915061577783614bb0565b92508282101561578a576157896156dc565b5b828203905092915050565b60006020820190506157aa60008301846155cc565b92915050565b600081905092915050565b50565b60006157cb6000836157b0565b91506157d6826157bb565b600082019050919050565b60006157ec826157be565b9150819050919050565b7f4572726f7220696e2053656e6400000000000000000000000000000000000000600082015250565b600061582c600d8361554f565b9150615837826157f6565b602082019050919050565b6000602082019050818103600083015261585b8161581f565b9050919050565b600061586d82614bb0565b91507fffffffffffffffffffffffffffffffffffffffffffffffffffffffffffffffff8214156158a05761589f6156dc565b5b600182019050919050565b7f416c726561647920726571756573746564000000000000000000000000000000600082015250565b60006158e160118361554f565b91506158ec826158ab565b602082019050919050565b60006020820190508181036000830152615910816158d4565b9050919050565b7f4e6f206465706f73697420796574210000000000000000000000000000000000600082015250565b600061594d600f8361554f565b915061595882615917565b602082019050919050565b6000602082019050818103600083015261597c81615940565b9050919050565b7f4d7573742075736520454f410000000000000000000000000000000000000000600082015250565b60006159b9600c8361554f565b91506159c482615983565b602082019050919050565b600060208201905081810360008301526159e8816159ac565b9050919050565b7f4572726f72000000000000000000000000000000000000000000000000000000600082015250565b6000615a2560058361554f565b9150615a30826159ef565b602082019050919050565b60006020820190508181036000830152615a5481615a18565b9050919050565b7f696e76616c6964207369676e61746f7279000000000000000000000000000000600082015250565b6000615a9160118361554f565b9150615a9c82615a5b565b602082019050919050565b60006020820190508181036000830152615ac081615a84565b9050919050565b7f4e6f7420454f4100000000000000000000000000000000000000000000000000600082015250565b6000615afd60078361554f565b9150615b0882615ac7565b602082019050919050565b60006020820190508181036000830152615b2c81615af0565b9050919050565b6000615b3e82614ae3565b9150615b4983614ae3565b92508260ff03821115615b5f57615b5e6156dc565b5b828201905092915050565b7f496e76616c696420616d6f756e74000000000000000000000000000000000000600082015250565b6000615ba0600e8361554f565b9150615bab82615b6a565b602082019050919050565b60006020820190508181036000830152615bcf81615b93565b9050919050565b6000604082019050615beb60008301856155cc565b615bf860208301846155cc565b9392505050565b7f4f776e61626c653a206e6577206f776e657220697320746865207a65726f206160008201527f6464726573730000000000000000000000000000000000000000000000000000602082015250565b6000615c5b60268361554f565b9150615c6682615bff565b604082019050919050565b60006020820190508181036000830152615c8a81615c4e565b9050919050565b7f416c726561647920766f74656400000000000000000000000000000000000000600082015250565b6000615cc7600d8361554f565b9150615cd282615c91565b602082019050919050565b60006020820190508181036000830152615cf681615cba565b9050919050565b7f4f776e61626c653a2063616c6c6572206973206e6f7420746865206f776e6572600082015250565b6000615d3360208361554f565b9150615d3e82615cfd565b602082019050919050565b60006020820190508181036000830152615d6281615d26565b9050919050565b7f5061757361626c653a2070617573656400000000000000000000000000000000600082015250565b6000615d9f60108361554f565b9150615daa82615d69565b602082019050919050565b60006020820190508181036000830152615dce81615d92565b9050919050565b7f5061757361626c653a206e6f7420706175736564000000000000000000000000600082015250565b6000615e0b60148361554f565b9150615e1682615dd5565b602082019050919050565b60006020820190508181036000830152615e3a81615dfe565b905091905056fea26469706673582212201871cc32bdf4b76c0767d4da990b33ab198c8f8198682e2156cb303bc851054b64736f6c63430008090033",
  "linkReferences": {},
  "deployedLinkReferences": {}
}